:100000000C942A000C9447000C9447000C94470071
:100010000C9447000C9447000C9447000C94470044
:100020000C9447000C9447000C9447000C94470034
:100030000C9447000C9447000C9447000C94470024
:100040000C9447000C9447000C9447000C94470014
:100050000C94470011241FBECFE5D4E0DEBFCDBF16
:1000600010E0A0E6B0E0E8E0F1E002C005900D92FB
:10007000A036B107D9F710E0A0E6B0E001C01D92AC
:10008000A036B107E1F70E9449000C9482000C945D
:1000900000008FEF87BB8BEC81BB77E062E85CE30D
:1000A00042E430EE21E4E3ECF1E878BB62BB8FEF91
:1000B00093E2A4EF81509040A040E1F700C000001F
:1000C00058BB42BB8FEF93E2A4EF81509040A04019
:1000D000E1F700C0000038BB22BB8FEF93E2A4EF32
:1000E00081509040A040E1F700C00000E8BBF2BBA7
:1000F0008FEF93E2A4EF81509040A040E1F700C061
:080100000000D3CFF894FFCFFB
:00000001FF
