:100000000C942A000C9447000C9447000C94470071
:100010000C9447000C9447000C9447000C94470044
:100020000C9447000C9447000C9447000C94470034
:100030000C9447000C9447000C9447000C94470024
:100040000C9447000C9447000C9447000C94470014
:100050000C94470011241FBECFE5D4E0DEBFCDBF16
:1000600010E0A0E6B0E0EAEDF0E002C005900D92ED
:10007000A636B107D9F710E0A6E6B0E001C01D92A0
:10008000A636B107E1F70E9449000C946B000C946E
:1000900000008FEF87BB8BB18BB98AB188618AB9B9
:1000A00080B5866A80BD41E0209163003091640094
:1000B0008BB18CB180936100109262008CB190E0A2
:1000C00082179307A9F788B3842788BB8BB18091E7
:0A00D00060008CB9E9CFF894FFCF6F
:0600DA00790100010000A5
:00000001FF
