:100000000C942A000C9447000C9447000C94470071
:100010000C9447000C9447000C9447000C94470044
:100020000C9447000C9447000C9447000C94470034
:100030000C9447000C9447000C9447000C94470024
:100040000C9447000C9447000C9447000C94470014
:100050000C94470011241FBECFE5D4E0DEBFCDBF16
:1000600010E0A0E6B0E0ECE4F1E002C005900D92F3
:10007000A036B107D9F710E0A0E6B0E001C01D92AC
:10008000A036B107E1F70E9449000C94A4000C943B
:1000900000008FEF87BB70E860E450E240E138E099
:1000A00024E0E2E0F1E078BB8FEF91EEA4E0815034
:1000B0009040A040E1F700C0000068BB8FEF91EED8
:1000C000A4E081509040A040E1F700C0000058BB80
:1000D0008FEF91EEA4E081509040A040E1F700C086
:1000E000000048BB8FEF91EEA4E081509040A0400B
:1000F000E1F700C0000038BB8FEF91EEA4E0815023
:100100009040A040E1F700C0000028BB8FEF91EEC7
:10011000A4E081509040A040E1F700C00000E8BB9F
:100120008FEF91EEA4E081509040A040E1F700C035
:100130000000F8BB8FEF91EEA4E081509040A0400A
:0C014000E1F700C00000AFCFF894FFCF43
:00000001FF
