:100000000C942A000C9454000C9447000C94470064
:100010000C9447000C9447000C9447000C94470044
:100020000C9447000C9447000C9447000C94470034
:100030000C9447000C9447000C9447000C94470024
:100040000C9447000C9447000C9447000C94470014
:100050000C94470011241FBECFE5D4E0DEBFCDBF16
:1000600010E0A0E6B0E0E8ECF0E002C005900D92F0
:10007000A036B107D9F710E0A0E6B0E001C01D92AC
:10008000A036B107E1F70E9449000C9462000C947D
:100090000000789411BA8FEF87BB85B7836085BF66
:1000A0008BB780648BBFFFCF1F920F920FB60F925A
:1000B00011248F938FEF88BB8F910F900FBE0F90FD
:0800C0001F901895F894FFCF82
:00000001FF
