:100000000C942A000C9447000C9447000C94470071
:100010000C9447000C9447000C9447000C94470044
:100020000C9447000C946F000C9447000C9447000C
:100030000C9447000C9447000C9447000C94470024
:100040000C9447000C9447000C9447000C94470014
:100050000C94470011241FBECFE5D4E0DEBFCDBF16
:1000600010E0A0E6B0E0ECE2F1E002C005900D92F5
:10007000A036B107D9F710E0A0E6B0E001C01D92AC
:10008000A436B107E1F70E9449000C9494000C9447
:10009000000078948FEF87BB18BA12BE83B78160D7
:1000A00083BF81E089BF8091600090916100A09141
:1000B0006200B0916300803322EF920720E0A20734
:1000C00020E0B20784F388B3809588BB109260006B
:1000D000109261001092620010926300E4CF1F92B0
:1000E0000F920FB60F9211248F939F93AF93BF93EC
:1000F0008091600090916100A0916200B0916300D6
:100100000196A11DB11D8093600090936100A093A2
:100110006200B0936300BF91AF919F918F910F9058
:0C0120000FBE0F901F901895F894FFCFB1
:00000001FF
