:100000000C942A000C9447000C9447000C94470071
:100010000C9447000C9447000C9447000C94470044
:100020000C9447000C9447000C9447000C94470034
:100030000C9447000C9447000C9447000C94470024
:100040000C9447000C9447000C9447000C94470014
:100050000C94470011241FBECFE5D4E0DEBFCDBF16
:1000600010E0A0E6B0E0EEEDF0E002C005900D92E9
:10007000A036B107D9F710E0A0E6B0E001C01D92AC
:10008000A036B107E1F70E9449000C946D000C9472
:1000900000001FBC83E08EBD1DBC1CBC8FEF87BB66
:1000A00080E090E0DC0140E050E0BA010BC02CB5EC
:1000B0003DB5EFEF28373E07D0F30196A11DB11DE6
:1000C0001DBC1CBC84309105A105B10584F388B327
:0E00D000809588BBDB01CA01F5CFF894FFCF05
:00000001FF
