:100000000C9441000C945E000C945E000C945E0015
:100010000C945E000C945E000C945E000C945E00E8
:100020000C945E000C945E000C945E000C945E00D8
:100030000C945E000C945E000C945E000C945E00C8
:100040000C945E000C945E000C945E000C945E00B8
:100050000C945E00084AD73B3BCE016E84BCBFFDCA
:10006000C12F3D6C74319ABD56833DDA3D00C77F88
:1000700011BED9E4BB4C3E916BAAAABE0000008021
:100080003F0011241FBECFE5D4E0DEBFCDBF10E09E
:10009000A0E6B0E0E8E4F7E002C005900D92A036DB
:1000A000B107D9F710E0A0E6B0E001C01D92A0377B
:1000B000B107E1F70E9460000C94A2030C940000C9
:1000C0008FEF87BB3E9A86B1836886B911E002E064
:1000D0000F2EFFE0BF2EF02D0F2EFFE1AF2EF02DE3
:1000E0000F2EFFE39F2EF02D88248A94369A36999E
:1000F000FECF84B195B1895591409093650080936E
:10010000640017B93699FECF84B195B181569140FC
:1001100090936D0080936C0007B93699FECFC4B1FF
:10012000D5B1CF55D140D0936700C09366002091E0
:1001300064003091650080916C0090916D00229F69
:10014000A001239F500D329F500D1124889FB001B4
:10015000899F700D989F700D1124640F751F88275B
:1001600077FD8095982F0E94CD010E94EC026B01D3
:100170007C01BE01882777FD8095982F0E94CD01D4
:100180009B01AC01C701B6010E9432010E940A0125
:100190002EEA37E445E652E40E9485020E949A0165
:1001A000DC01CB0190936F0080936E002FEF8B3EAC
:1001B00092070CF418BB80916E0090916F004596E9
:1001C0008631910508F4B8BA80916E0090916F0065
:1001D00001978631910508F4A8BA80916E0090913C
:1001E0006F0047978632910508F498BA80916E00A7
:1001F00090916F00CD978E31910508F488BA8FEFFA
:1002000099E6A8E181509040A040E1F700C00000CD
:1002100018BA6CCFDF93DD27B92FBF7740E85FE3D3
:100220001616170648075B0710F4D92F67D19F935E
:100230008F937F936F930ED2E4E5F0E0F2D024D158
:100240002F913F914F915F916CD1DD2349F09058F0
:10025000A2EA2AED3FE049EC5FE3D0785D270AD2BD
:10026000DF9112C10CD010C108D140F0FFD030F0A6
:1002700021F45F3F19F0CCC051113AC1CFC015D164
:1002800098F39923C9F35523B1F3951B550BBB275D
:10029000AA2762177307840738F09F5F5F4F220F0A
:1002A000331F441FAA1FA9F333D00E2E3AF0E0E803
:1002B00030D091505040E695001CCAF729D0FE2F4F
:1002C00027D0660F771F881FBB1F261737074807E1
:1002D000AB07B0E809F0BB0B802DBF01FF27935897
:1002E0005F4F2AF09E3F510568F092C001C15F3F09
:1002F000ECF3983EDCF3869577956795B795F7957F
:100300009F5FC9F7880F911D9695879597F9089576
:10031000E1E0660F771F881FBB1F62177307840712
:10032000BA0720F0621B730B840BBA0BEE1F88F721
:10033000E095089504D06894B111DAC00895BDD055
:1003400088F09F5790F0B92F9927B751A0F0D1F0BE
:10035000660F771F881F991F1AF0BA95C9F712C048
:10036000B13081F0C4D0B1E00895C1C0672F782FBB
:100370008827B85F39F0B93FCCF3869577956795B4
:10038000B395D9F73EF490958095709561957F4F20
:100390008F4F9F4F0895E89409C097FB3EF49095C6
:1003A0008095709561957F4F8F4F9F4F9923A9F04E
:1003B000F92F96E9BB279395F695879577956795DD
:1003C000B795F111F8CFFAF4BB0F11F460FF1BC021
:1003D0006F5F7F4F8F4F9F4F16C0882311F096E9B4
:1003E00011C0772321F09EE8872F762F05C0662362
:1003F00071F096E8862F70E060E02AF09A95660F1B
:10040000771F881FDAF7880F9695879597F90895D3
:1004100097F99F6780E870E060E008959FEF80ECB7
:100420000895DF93CF931F930F93FF92EF92DF9284
:100430007B018C01689405C0DA2EEF0172D0FE01B9
:10044000E894A5912591359145915591AEF3EF0131
:1004500011D1FE019701A801DA9479F7DF90EF90AE
:10046000FF900F911F91CF91DF91089500240A947E
:100470001616170618060906089500240A9412167F
:100480001306140605060895092E0394000C11F4B2
:10049000882352F0BB0F40F4BF2B11F460FF04C05F
:1004A0006F5F7F4F8F4F9F4F089557FD9058440FB8
:1004B000551F59F05F3F71F04795880F97FB991FC3
:1004C00061F09F3F79F08795089512161306140680
:1004D000551FF2CF4695F1DF08C01616170618060D
:1004E000991FF1CF86957105610508940895E894E8
:1004F000BB2766277727CB0197F908959B01AC01AD
:1005000060E070E080E89FE3ADCE0BD0BDCFAEDF02
:1005100028F0B3DF18F0952309F07ACF7FCF1124AC
:10052000E7CFC3DFA0F3959FD1F3950F50E0551FA0
:10053000629FF001729FBB27F00DB11D639FAA2738
:10054000F00DB11DAA1F649F6627B00DA11D661F87
:10055000829F2227B00DA11D621F739FB00DA11DA8
:10056000621F839FA00D611D221F749F3327A00D62
:10057000611D231F849F600D211D822F762F6A2FFE
:1005800011249F5750408AF0E1F088234AF0EE0F83
:10059000FF1FBB1F661F771F881F91505040A9F790
:1005A0009E3F510570F034CFA3CF5F3FECF3983EF0
:1005B000DCF3869577956795B795F795E7959F5FF7
:1005C000C1F7FE2B880F911D9695879597F9089591
:1005D00011F40EF423CFA1C070DFD0F39923D9F327
:1005E000CEF39F57550B87FFA6D00024A0E640EA24
:1005F000900180585695979528F4805C660F771F78
:10060000881F20F026173707480730F4621B730B4A
:10061000840B202931294A2BA6951794079420256D
:1006200031254A2758F7660F771F881F20F02617B5
:100630003707480730F4620B730B840B200D311D14
:10064000411DA09581F7B901842F9158880F969587
:10065000879508959B01AC0158CF08DF30F00DDF7E
:1006600020F031F49F3F11F41EF4D8CE0EF4E09543
:10067000E7FBCECEE92F19DF80F3BA1762077307C5
:100680008407950718F071F49EF531CF0EF4E095CC
:100690000B2EBA2FA02D0B01B90190010C01CA013C
:1006A000A0011124FF27591B99F0593F50F4503EE7
:1006B00068F11A16F040A22F232F342F4427585FD9
:1006C000F3CF469537952795A795F0405395C9F7F1
:1006D0007EF41F16BA0B620B730B840BBAF09150A9
:1006E000A1F0FF0FBB1F661F771F881FC2F70EC048
:1006F000BA0F621F731F841F48F48795779567951B
:10070000B795F7959E3F08F0B3CF9395880F08F003
:100710009927EE0F9795879508959F3F31F0915057
:1007200020F4879577956795B795880F911D9695D5
:10073000879597F9089591505040660F771F881F4D
:08074000D2F70895F894FFCFF1
:00000001FF
