:100000000C942A000C9447000C9447000C94470071
:100010000C9447000C9447000C9447000C94470044
:100020000C9447000C9447000C9447000C94470034
:100030000C9447000C9447000C9447000C94470024
:100040000C9447000C9447000C9447000C94470014
:100050000C94470011241FBECFE5D4E0DEBFCDBF16
:1000600010E0A0E6B0E0E2E2F1E002C005900D92FF
:10007000A036B107D9F710E0A0E6B0E001C01D92AC
:10008000A636B107E1F70E9449000C948F000C944A
:10009000000086B1876886B98FEF87BB3E9AF1E092
:1000A000E3E077E06FE05FE14FE33FE72FEF369A61
:1000B0003699FECF84B195B190936500809364002A
:1000C0008138910514F428BBF2CFA1E081309A0762
:1000D00014F438BBECCFA1E081389A0714F448BB84
:1000E000E6CFA2E081309A0714F458BBE0CFA2E03B
:1000F00081389A0714F468BBDACFA3E081309A07FD
:1001000014F478BBD4CFA3E081389A0714F4E8BB89
:10011000CECFA4E081309A0754F6F8BBC8CFF8944C
:02012000FFCF0F
:00000001FF
