:100000000C942A000C9447000C9447000C94470071
:100010000C9447000C9447000C9447000C94470044
:100020000C9447000C9447000C9447000C94470034
:100030000C9447000C9447000C9447000C94470024
:100040000C9447000C9447000C9447000C94470014
:100050000C94470011241FBECFE5D4E0DEBFCDBF16
:1000600010E0A0E6B0E0ECEDF0E002C005900D92EB
:10007000A436B107D9F710E0A4E6B0E001C01D92A4
:10008000A436B107E1F70E9449000C946C000C946F
:1000900000008FEF87BB8BB18BB98AB188618AB9B9
:1000A00080B5866A80BD8BB1809162008CB9E2E632
:1000B000F0E02EE69CB180916000981741F488B37F
:1000C000805888BB8BB180818CB9209360008BB144
:0C00D0008CB180936000EECFF894FFCF5D
:0400DC00797901002D
:00000001FF
