:100000000C942A000C9447000C9447000C94470071
:100010000C9447000C9447000C9447000C94470044
:100020000C9447000C9447000C9447000C94470034
:100030000C9447000C9447000C9447000C94470024
:100040000C9447000C9447000C9447000C94470014
:100050000C94470011241FBECFE5D4E0DEBFCDBF16
:1000600010E0A0E6B0E0EAEEF0E002C005900D92EC
:10007000A036B107D9F710E0A0E6B0E001C01D92AC
:10008000A036B107E1F70E9449000C9473000C946C
:1000900000008FEF81BB81E88FBD8EB589608EBD7A
:1000A00080E090E0EFEF20E030E00BC08CBF4FEF3E
:1000B00050E762E0415050406040E1F700C000006E
:1000C00001968F3F910594F38E2F8CBF4FEF50E731
:1000D00062E0415050406040E1F700C000008150B4
:0A00E000A1F7C901EECFF894FFCF9D
:00000001FF
