:1000000019C033C032C031C030C02FC02EC02DC087
:100010002CC02BC02AC029C028C027C026C025C09C
:1000200024C023C022C021C020C01FC01EC01DC0CC
:100030001CC01BC011241FBECFEFD4E0DEBFCDBF5C
:1000400011E0A0E0B1E0E8E1F1E002C005900D921E
:10005000A030B107D9F711E0A0E0B1E001C01D92D6
:10006000A030B107E1F702D055C0CACF8FEF8AB9EF
:1000700084B5836884BD85B5896085BD80E090E0E6
:10008000EFEF7CEC69E956E643E3C0E0D0E00BC05B
:1000900087BD0FEF10E722E0015010402040E1F74C
:1000A00000C00000C3968F3F910594F3E7BD8FEF2A
:1000B00090E7A2E081509040A040E1F700C000002E
:1000C00077BD0FEF10E722E0015010402040E1F72C
:1000D00000C0000067BD8FEF90E7A2E08150904024
:1000E000A040E1F700C0000057BD0FEF10E722E08D
:1000F000015010402040E1F700C0000047BD8FEFE5
:1001000090E7A2E081509040A040E1F700C00000DD
:08011000CE01C9CFF894FFCF26
:00000001FF
