:100000000C942A000C9447000C9447000C94470071
:100010000C9447000C9447000C9447000C94470044
:100020000C9447000C9447000C9447000C94470034
:100030000C9447000C9447000C9447000C94470024
:100040000C9447000C9447000C9447000C94470014
:100050000C94470011241FBECFE5D4E0DEBFCDBF16
:1000600010E0A0E6B0E0E4EEF0E002C005900D92F2
:10007000A036B107D9F710E0A0E6B0E001C01D92AC
:10008000A036B107E1F70E9449000C9470000C946F
:10009000000082EE94E097BD86BD8FEF81BB82E8C1
:1000A0008FBD8CE18EBD80E090E02AEF30E009C08A
:1000B0009BBD8ABDEFE3FCE93197F1F700C000007A
:1000C00001968A3F9105A4F3C9019BBD8ABDEFE368
:1000D000FCE93197F1F700C000000197B1F7F1CFCB
:0400E000F894FFCFC2
:00000001FF
